:020000040800F2
:1000000000070020E1020008E3020008E302000804
:10001000E3020008E3020008E3020008E30200082C
:10002000E3020008E3020008E30200084925000893
:10003000E3020008E3020008E3020008E30200080C
:10004000E3020008E3020008E3020008E3020008FC
:10005000E3020008E3020008E3020008E3020008EC
:10006000E3020008E3020008E30200087110000840
:1000700099100008C5100008F11000081D110008B3
:100080004511000871110008E3020008E3020008AE
:10009000E3020008E3020008E3020008E3020008AC
:1000A000E3020008E3020008E3020008E30200089C
:1000B000E3020008E3020008E3020008E30200088C
:1000C000E3020008E3020008E3020008E30200087C
:1000D000E3020008E3020008E30200082D2F0008F5
:1000E000E3020008E3020008E3020008E30200085C
:1000F000E3020008E3020008E30200089D11000883
:10010000E3020008192F0008412F0008E30200084D
:10011000E3020008E3020008E3020008E30200082B
:10012000C9110008F11100081D1200084912000849
:1001300075120008E3020008E3020008E302000869
:10014000E3020008E3020008E3020008E3020008FB
:100150009D120008C9120008F5120008E302000809
:10016000E3020008E3020008E3020008E3020008DB
:10017000E3020008E3020008E3020008E3020008CB
:10018000E3020008E3020008E3020008E3020008BB
:10019000E3020008E3020008E3020008E3020008AB
:1001A000E3020008E3020008E3020008E30200089B
:1001B000E3020008E3020008E3020008E30200088B
:1001C000E3020008E3020008E3020008E30200087B
:1001D000E3020008E3020008E3020008E30200086B
:1001E000E3020008E3020008E3020008E30200085B
:1001F000E3020008E3020008E3020008E30200084B
:10020000E3020008E3020008E3020008E30200083A
:10021000E3020008E3020008E3020008E30200082A
:10022000E3020008E3020008E3020008E30200081A
:10023000E3020008E3020008E3020008E30200080A
:10024000E3020008E3020008E3020008E3020008FA
:10025000E3020008E3020008E3020008E3020008EA
:10026000E3020008E3020008E3020008E3020008DA
:10027000E3020008E3020008E3020008E3020008CA
:10028000E3020008E3020008E3020008E3020008BA
:10029000E3020008E3020008E3020008E3020008AA
:1002A000E3020008E3020008E3020008E30200089A
:1002B000E3020008E3020008E3020008E30200088A
:1002C000E3020008E3020008E3020008E30200087A
:1002D000E3020008E3020008E3020008E30200086A
:1002E00002E000F000F8FEE772B6374880F30888B5
:1002F000364880F3098836483649086040F20000E5
:10030000CCF200004EF63471CEF200010860BFF36B
:100310004F8FBFF36F8F40F20000C0F2F0004EF637
:100320008851CEF200010860BFF34F8FBFF36F8F8B
:100330004FF00000E1EE100A4EF63C71CEF20001E3
:100340000860062080F31488BFF36F8F02F05EF917
:1003500002F09AFB4FF055301F491B4A91423CBFB7
:1003600041F8040BFAE71D49184A91423CBF41F895
:10037000040BFAE71A491B4A1B4B9A423EBF51F83D
:10038000040B42F8040BF8E700201849184A914280
:100390003CBF41F8040BFAE702F076F902F0F8FBF3
:1003A000144C154DAC4203DA54F8041B8847F9E7A6
:1003B00000F042F8114C124DAC4203DA54F8041B21
:1003C0008847F9E702F05EB900070020002300200B
:1003D0000000000808ED00E00001002000070020F8
:1003E000483E000800230020302300203023002056
:1003F000282F0020E0020008E0020008E0020008C8
:10040000E00200082DE9F04F2DED108AC1F80CD064
:10041000D0F80CD0BDEC108ABDE8F08F002383F338
:1004200011882846A047002001F056FCFEE701F0A5
:10043000EBFB00DFFEE7000038B500F021FC00F028
:1004400069FD02F02FF8054602F074F80446C0B9C1
:100450000E4B9D4217D001339D4241F2883512BFA9
:10046000044600250124002002F026F80CB100F01B
:1004700073F800F029FD284600F0FEF800F06CF853
:10048000F9E70025EFE70546EDE700BF010007B0FB
:1004900008B500F0C1FBA0F120035842584108BD47
:1004A00007B5042101900DEB010000F0D3FB03B070
:1004B0005DF804FB38B5302383F3118817480368CF
:1004C0000BB101F0DFFC0023154A4FF47A71134899
:1004D00001F0CEFC002383F31188124C236813B182
:1004E0002368013B2360636813B16368013B636069
:1004F0000D4D2B7833B963687BB9022000F07AFC8C
:10050000322363602B78032B07D163682BB9022059
:1005100000F070FC4FF47A73636038BD3023002024
:10052000B50400085024002048230020084B187010
:1005300003280CD8DFE800F008050208022000F0CC
:1005400051BC022000F044BC024B00225A607047AC
:100550004823002050240020F8B5414B414A1C4656
:10056000196801317AD004339342F9D162683E4B65
:100570009A4273D93D4B9B6803F1006303F5003346
:100580009A426BD2002000F095FB0220FFF7CEFFCD
:10059000374B0021D3F8E820C3F8E810D3F8102136
:1005A000C3F81011D3F81021D3F8EC20C3F8EC10E5
:1005B000D3F81421C3F81411D3F81421D3F8F02080
:1005C000C3F8F010D3F81821C3F81811D3F8183174
:1005D00072B64FF0E023C3F8084DD4E90004BFF32E
:1005E0004F8FBFF36F8F234AC2F88410BFF34F8F32
:1005F000536923F480335361BFF34F8FD2F88030B7
:1006000043F6E076C3F3C905C3F34E335B0103EA57
:10061000060C29464CEA81770139C2F87472F9D286
:10062000203B13F1200FF2D1BFF34F8FBFF36F8F39
:10063000BFF34F8FBFF36F8F536923F400335361C0
:100640000023C2F85032BFF34F8FBFF36F8F3023B8
:1006500083F31188854680F308882047F8BD00BFE2
:100660000000020820000208FFFF0108002300200C
:100670000044025800ED00E02DE9F04F95B0DFF89E
:10068000D8922022FF21029004A8D9F8085000F047
:10069000C5FBA84A1378A3B90121A74811700360CC
:1006A000302383F3118803680BB101F0EBFB0023C7
:1006B000A24A4FF47A71A04801F0DAFB002383F3D9
:1006C0001188029B13B19E4B029A1A609D4A1378BF
:1006D000032B03D000231370994A53604FF0000B93
:1006E000029C5E46DA46CDF804B0012000F07AFBA9
:1006F00024B1934B1B68002B00F02882002000F0EF
:100700008BFAB0F10008F3DB012000F061FBA8F1E7
:1007100021031F2BE9D801A252F823F09D070008FE
:10072000B907000847080008EB060008EB060008B8
:10073000EB060008D1080008C30A0008B509000844
:10074000110A0008370A00085D0A0008EB060008D5
:100750006F0A0008930A00080B0B00082508000820
:10076000EB060008530B0008A9070008250800083D
:10077000EB060008110A0008EB060008EB0600086B
:10078000EB060008EB060008EB060008EB06000885
:10079000EB060008EB060008470800080220FFF7F8
:1007A00077FE002840F0FF81029B02216648BBF1E2
:1007B000000F08BF1C4640E04FF47A7000F02CFA9E
:1007C000071EF1DB0220FFF763FE0028ECD0013F9B
:1007D000052F00F2EA81DFE807F003070A0D103366
:1007E0000520FFF75DFE14E0D9F80000F9E7D9F81D
:1007F0000400F6E7D9F80800F3E74FF01C0840467C
:1008000008F1040800F058FAFFF74AFEB8F12C0F7F
:10081000F5D10120019B4FF0000A00FA07F71F43B2
:10082000FBB2019300F046FB2EB1019B03F00B03DA
:100830000B2B08BF00240221444800F00BFA54E7B8
:10084000D9F80C00CDE7002EAED0019B03F00B03CE
:100850000B2BA9D10220FFF71BFE07460028A3D0CF
:100860000120002600F026FA0220FFF75FFE1FFAA3
:1008700086FB584600F02EFA044688B1A8F14002E3
:10088000584601365142514100F034FA0028EED169
:10089000BB46044602212E483E4600F0DBF924E721
:1008A00025460120FFF742FED9F80830AB4207D9B0
:1008B000284600F001FA013040F07A810435F3E770
:1008C0000025204BBB463E461D701D4B5D60A9E7D1
:1008D000002E3FF469AF019B03F00B030B2B7FF459
:1008E00063AF0220FFF722FE322000F095F9B0F14D
:1008F0000008FFF659AF18F003077FF455AF08EB77
:100900000503D9F8082093423FF64EAFB8F5807F33
:100910003FF74AAF0F4BB84503931FDD4FF47A7092
:1009200000F07AF90028FFF63FAF039B013703F888
:10093000010BF0E74C24002030230020B504000810
:1009400050240020482300200C3B0008043B0008F2
:10095000083B00084C23002000230020C820FFF79C
:1009600097FD074600283FF41FAF1F2D11D8C5F192
:10097000200204AB25F003008F494245184428BFEC
:100980004246039200F040FA039AFF218A4800F0A1
:1009900045FA4FEAA803C8F387028749284603931C
:1009A00000F044FA064600283FF474AF039B05EBC1
:1009B000830537E70220FFF76BFD00283FF4F4AE14
:1009C00000F0B6F900283FF4EFAE0027B846D9F89A
:1009D0000830BB4218D91F2F11D8049B01330ED009
:1009E00027F0030314AA134453F8403C0C934046E9
:1009F00004220CA9043700F025FB8046E7E73846BF
:100A000000F05AF90C90F2E74046FFF749FD09E77C
:100A1000002364210CA80C9300F012F900287FF445
:100A2000C3AE0220FFF734FD00283FF4BDAE0C98A2
:100A300000F074F9E9E7002364210CA80C9300F09E
:100A4000FFF800287FF4B0AE0220FFF721FD002858
:100A50003FF4AAAE0C9800F063F9D6E70220FFF746
:100A600017FD00283FF4A0AE00F072F9CDE7022098
:100A7000FFF70EFD00283FF497AE0CA9142000F0FC
:100A80006DF90390FFF70CFD03990CA800F0E2F854
:100A9000C8E60220FFF7FCFC00283FF485AE474B78
:100AA0000CAF03F1100C1868083353F8041C3A46D5
:100AB000634503C21746F6D11020FFF7F1FC102161
:100AC000E3E7322000F0A8F8071EFFF66DAEBB0783
:100AD0007FF46AAE07EB0A03D9F8082093423FF689
:100AE00063AE0220FFF7D4FC00283FF45DAE27F090
:100AF00003075744BA453FF495AE50460AF1040A3D
:100B000000F0DAF8FFF7CCFCF4E74FF47A70FFF767
:100B1000BFFC00283FF448AE00F00AF9002849D095
:100B2000049B01330BD0082204A9002000F07EF9B9
:100B300000283FD02022FF2104A800F06FF92048B0
:100B4000022100F087F81F4801F0CCF815B0BDE88D
:100B5000F08F002E3FF428AE019B03F00B030B2B0C
:100B60007FF422AE002364210CA80C9300F068F8F7
:100B7000074600287FF418AE0220FFF789FC804664
:100B800000283FF411AE02210D4800F063F841F255
:100B9000883001F0A7F80C9800F0A2F946463C46D0
:100BA00000F088F9A1E506463CE64FF0000AFBE5B7
:100BB000BB466FE637466DE64C230020F03A00084E
:100BC000043B0008A0860100104B70B51B780C4652
:100BD0000133DBB2012B12D80D4B1D684FF47A7331
:100BE0002968A2FB033222460E6A01462846B04716
:100BF000844204D1074B002201201A7070BD4FF4CB
:100C0000FA7001F06FF80020F8E700BF1023002011
:100C1000142300209C240020002307B50246012154
:100C20000DF107008DF80730FFF7CEFF20B19DF8DA
:100C3000070003B05DF804FB4FF0FF30F9E7000058
:100C40000A46042108B5FFF7BFFF80F00100C0B2DB
:100C5000404208BD074B0A4630B41978064B53F89A
:100C60002140014623682046DD69044BAC4630BC78
:100C7000604700BF9C24002014230020A0860100B0
:100C800070B50A4E00240A4D01F004FA308028683D
:100C90003388834208D901F0F9F92B680444013301
:100CA000B4F5003F2B60F2D370BD00BF9E2400203E
:100CB0005824002001F0C8BA00F1006000F50030AF
:100CC0000068704700F10060920000F5003001F00C
:100CD0003DBA0000054B1A68054B1B889B1A8342DE
:100CE00002D9104401F0D2B90020704758240020E6
:100CF0009E24002038B50446074D29B128682044B9
:100D0000BDE8384001F0DAB92868204401F0C4F9A0
:100D10000028F3D038BD00BF5824002000207047C1
:100D200000F1FF5000F58F10D0F800087047000068
:100D3000064991F8243033B100230822086A81F86B
:100D40002430FFF7BFBF0120704700BF5C240020A4
:100D5000014B1868704700BF0010005C194B013848
:100D60000322084470B51D68174BC5F30B042D0C06
:100D70001E88A6420BD15C680A46013C824213469B
:100D80000FD214F9016F4EB102F8016BF6E7013A88
:100D900003F10803ECD181420B4602D22C2203F866
:100DA000012B0424094A1688AE4204D1984284BF1C
:100DB000967803F8016B013C02F10402F3D1581A52
:100DC00070BD00BF0010005C182300203C3B0008F1
:100DD000022803D1024B4FF400229A61704700BFF2
:100DE00000100258022802D1014B08229A61704774
:100DF00000100258022804D1024A536983F0080304
:100E00005361704700100258002310B5934203D07D
:100E1000CC5CC4540133F9E710BD00000244034622
:100E2000934202D003F8011BFAE770472DE9F8431B
:100E30001F4D14460746884695F8242052BBDFF81C
:100E400070909CB395F824302BB92022FF2148469E
:100E50002F62FFF7E3FF95F824004146C0F1080236
:100E600005EB8000A24228BF2246D6B29200FFF7CF
:100E7000CBFF95F82430A41B17441E449044E4B2E1
:100E8000F6B2082E85F82460DBD1FFF751FF002869
:100E9000D7D108E02B6A03EB82038342CFD0FFF760
:100EA00047FF0028CBD10020BDE8F8830120FBE7F5
:100EB0005C240020024B1A78024B1A70704700BF66
:100EC0009C240020102300204FF4E13302490B60E2
:100ED000024B186800F0DEBD84240020142300209B
:100EE000094B1822002110B504461846FFF796FF5B
:100EF000064A074B01461278046053F82200BDE809
:100F0000104000F0C7BD00BF842400209C240020B6
:100F1000142300202DE9F04771B6464B01201D68CF
:100F2000454BB3F8008000231A46194600F08AFAB0
:100F30000446802001F026FA0746002862D0002CE3
:100F400060D03E4EADB24FF0800A7369284643F040
:100F5000C0637361D6F8143143F0C063C6F814312E
:100F600001F094F805EB080200FB05F34FF4D06C98
:100F700050434FF03D0E984233D93269520144D468
:100F8000D6F81021510140D4216803F100628A6033
:100F90002268D7602268C2F804A02268C2F800C0A4
:100FA000D4F80090D9F8002042F00102C9F80020DE
:100FB000D4F80090D9F8002022F01E02C9F80020D1
:100FC000D4F80090D9F80020D207FBD494F80C9004
:100FD000803361680EFA09F20A60CCE7002001F064
:100FE00033F9204600F06EFA384601F005FA134B4B
:100FF0005A6942F0C0625A61D3F8142142F0C062CB
:10100000C3F8142161B6BDE8F0870D4B9A6A42F42B
:1010100000729A629A6A42F400429A6261B60026AD
:10102000012001F011F9B045D8D9A819013601F015
:1010300045F8F8E7582400209E24002000200052A4
:1010400000ED00E030B50A44084D91420DD011F892
:10105000013B5840082340F30004013B2C4013F0AF
:10106000FF0384EA5000F6D1EFE730BD2083B8EDEE
:1010700008B5074B074A196801F03D0199605368AC
:101080000BB190689847BDE8084001F095BA00BFE1
:1010900000000240A024002008B5084B1968890907
:1010A00001F03D018A019A60054AD3680BB11069CD
:1010B0009847BDE8084001F07FBA00BF0000024039
:1010C000A024002008B5084B1968090C01F03D0167
:1010D0000A049A60054A53690BB190699847BDE8C4
:1010E000084001F069BA00BF00000240A0240020BF
:1010F00008B5084B1968890D01F03D018A059A6011
:10110000054AD3690BB1106A9847BDE8084001F061
:1011100053BA00BF00000240A024002008B5074BCE
:10112000074A596801F03D01D960536A0BB1906AD2
:101130009847BDE8084001F03FBA00BF00000240F8
:10114000A024002008B5084B5968890901F03D0129
:101150008A01DA60054AD36A0BB1106B9847BDE883
:10116000084001F029BA00BF00000240A02400207E
:1011700008B5084B5968090C01F03D010A04DA6012
:10118000054A536B0BB1906B9847BDE8084001F0DE
:1011900013BA00BF00000240A024002008B5084B8D
:1011A0005968890D01F03D018A05DA60054AD36B63
:1011B0000BB1106C9847BDE8084001F0FDB900BFC5
:1011C00000000240A024002008B5074B074A196818
:1011D00001F03D019960536C0BB1906C9847BDE8EC
:1011E000084001F0E9B900BF00040240A02400203B
:1011F00008B5084B1968890901F03D018A019A6018
:10120000054AD36C0BB1106D9847BDE8084001F05A
:10121000D3B900BF00040240A024002008B5084B49
:101220001968090C01F03D010A049A60054A536DE2
:101230000BB1906D9847BDE8084001F0BDB900BF03
:1012400000040240A024002008B5084B1968890D4D
:1012500001F03D018A059A60054AD36D0BB1106E0D
:101260009847BDE8084001F0A7B900BF000402405C
:10127000A024002008B5074B074A596801F03D013A
:10128000D960536E0BB1906E9847BDE8084001F0ED
:1012900093B900BF00040240A024002008B5084B09
:1012A0005968890901F03D018A01DA60054AD36E67
:1012B0000BB1106F9847BDE8084001F07DB900BF41
:1012C00000040240A024002008B5084B5968090C0E
:1012D00001F03D010A04DA60054A536F0BB1906FCB
:1012E0009847BDE8084001F067B900BF000402401C
:1012F000A024002008B5084B5968890D01F03D0174
:101300008A05DA60054AD36F13B1D2F88000984796
:10131000BDE8084001F050B900040240A0240020BC
:1013200000230C4910B51A460B4C0B6054F82300EF
:10133000026001EB430004334260402BF6D1074AC0
:101340004FF0FF339360D360C2F80834C2F80C3416
:1013500010BD00BFA02400204C3B0008000002404C
:101360000F28F8B510D9102810D0112811D0122844
:1013700008D10F240720DFF8C8E00126DEF800506E
:10138000A04208D9002653E00446F4E70F240020C9
:10139000F1E70724FBE706FA00F73D424AD1264C65
:1013A0004FEA001C3D4304EB00160EEBC000CEF8E4
:1013B0000050C0E90123FBB273B12048D0F8D83007
:1013C00043F00103C0F8D830D0F8003143F00103F6
:1013D000C0F80031D0F8003117F47F4F0ED0174815
:1013E000D0F8D83043F00203C0F8D830D0F800313C
:1013F00043F00203C0F80031D0F8003154F80C007B
:10140000036823F01F030360056815F00105FBD195
:1014100004EB0C033D2493F80CC05F6804FA0CF451
:101420003C6021240560446112B1987B00F066F9AC
:101430003046F8BD0130A3E74C3B00080044025899
:10144000A024002010B5302484F31188FFF788FF12
:10145000002383F3118810BD10B50446807B00F093
:1014600063F901231549627B03FA02F20B6823EA50
:101470000203DAB20B6072B9114AD2F8D81021F027
:101480000101C2F8D810D2F8001121F00101C2F810
:101490000011D2F8002113F47F4F0ED1084BD3F87E
:1014A000D82022F00202C3F8D820D3F8002122F07D
:1014B0000202C3F80021D3F8003110BDA02400209F
:1014C0000044025808B5302383F31188FFF7C4FFA6
:1014D000002383F3118808BD02684368114301604B
:1014E00003B1184770470000024A136843F0C00375
:1014F000136070470048004013B50E4C204600F0C2
:10150000BDFA04F1140000234FF400720A4900945C
:1015100000F07AF9094B4FF40072094904F13800E0
:10152000009400F0F3F9074A074BC4E9172302B00F
:1015300010BD00BF2425002090250020E9140008DC
:10154000902700200048004000E1F505037C30B5FD
:10155000244C002918BF0C46012B11D1224B984274
:101560000ED1224BD3F8E82042F48022C3F8E820C1
:10157000D3F8102142F48022C3F81021D3F810319F
:101580002268036EC16D03EB52038466B3FBF2F372
:101590006268150442BF23F0070503F0070343EA1E
:1015A0004503CB60A36843F040034B60E36843F01E
:1015B00001038B6042F4967343F001030B604FF01C
:1015C000FF330B62510505D512F0102205D0B2F1A0
:1015D000805F04D080F8643030BD7F23FAE73F237A
:1015E000F8E700BF4C3C00082425002000440258C6
:1015F0002DE9F047C66D05463768F4692107346266
:101600001AD014F0080118BF4FF48071E20748BFE8
:1016100041F02001A3074FF0300348BF41F04001E3
:10162000600748BF41F0800183F31188281DFFF750
:1016300053FF002383F31188E2050AD5302383F397
:1016400011884FF48061281DFFF746FF002383F3C4
:1016500011884FF030094FF0000A14F0200838D1FB
:101660003B0616D54FF0300905F1380A200610D593
:1016700089F31188504600F07DF9002836DA0821F8
:10168000281DFFF729FF27F080033360002383F331
:101690001188790614D5620612D5302383F3118898
:1016A000D5E913239A4208D12B6C33B127F04007B8
:1016B0001021281DFFF710FF3760002383F31188E6
:1016C000E30618D5AA6E1369ABB15069BDE8F047BF
:1016D000184789F31188736A284695F864101940F1
:1016E00000F0E6F98AF31188F469B6E7B06288F38E
:1016F0001188F469BAE7BDE8F0870000090100F13C
:101700006043012203F56143C9B283F8001300F07E
:101710001F039A4043099B0003F1604303F56143B3
:10172000C3F880211A60704700F01F0301229A401D
:10173000430900F160409B0000F5614003F1604304
:1017400003F56143C3F88020C3F88021002380F8AB
:1017500000337047F8B51546826804460B46AA4226
:1017600000D28568A1692669761AB5420BD218465F
:101770002A46FFF749FBA3692B44A3612846A368C7
:101780005B1BA360F8BD0CD9AF1B18463246FFF7B0
:101790003BFB3A46E1683044FFF736FBE3683B44E5
:1017A000EBE718462A46FFF72FFBE368E5E7000062
:1017B00083689342F7B50446154600D28568D4E99C
:1017C0000460361AB5420BD22A46FFF71DFB636947
:1017D0002B4463612846A3685B1BA36003B0F0BD84
:1017E0000DD93246AF1B0191FFF70EFB01993A4626
:1017F000E0683144FFF708FBE3683B44E9E72A4629
:10180000FFF702FBE368E4E710B50A440024C36174
:10181000029B8460C16002610362C0E90000C0E90C
:10182000051110BD08B5D0E90532934201D1826897
:1018300082B98268013282605A1C426119700021AB
:10184000D0E904329A4224BFC368436100F07EFAB3
:10185000002008BD4FF0FF30FBE7000070B53023DB
:1018600004460E4683F31188A568A5B1A368A26952
:10187000013BA360531CA36115782269934224BFE6
:10188000E368A361E3690BB120469847002383F323
:101890001188284607E03146204600F047FA002824
:1018A000E2DA85F3118870BD2DE9F74F04460E4644
:1018B00017469846D0F81C904FF0300A8AF31188EA
:1018C0004FF0000B154665B12A4631462046FFF71A
:1018D00041FF034660B94146204600F027FA002840
:1018E000F1D0002383F31188781B03B0BDE8F08F9B
:1018F000B9F1000F03D001902046C847019B8BF33C
:101900001188ED1A1E448AF31188DCE7C160C361B7
:10191000009B82600362C0E905111144C0E9000028
:1019200001617047F8B504460D461646302383F32F
:101930001188A768A7B1A368013BA36063695A1C1B
:1019400062611D70D4E904329A4224BFE368636186
:10195000E3690BB120469847002080F3118807E027
:101960003146204600F0E2F90028E2DA87F31188D8
:10197000F8BD0000D0E9052310B59A4201D1826874
:101980007AB982680021013282605A1C82611C7817
:1019900003699A4224BFC368836100F0D7F92046E7
:1019A00010BD4FF0FF30FBE72DE9F74F04460E4620
:1019B00017469846D0F81C904FF0300A8AF31188E9
:1019C0004FF0000B154665B12A4631462046FFF719
:1019D000EFFE034660B94146204600F0A7F9002813
:1019E000F1D0002383F31188781B03B0BDE8F08F9A
:1019F000B9F1000F03D001902046C847019B8BF33B
:101A00001188ED1A1E448AF31188DCE702684368E6
:101A10001143016003B11847704700001430FFF70D
:101A200043BF00004FF0FF331430FFF73DBF00000D
:101A30003830FFF7B9BF00004FF0FF333830FFF701
:101A4000B3BF00001430FFF709BF00004FF0FF31B3
:101A50001430FFF703BF00003830FFF763BF00000A
:101A60004FF0FF323830FFF75DBF0000012914BF8F
:101A70006FF0130000207047FFF73EBD044B03607A
:101A800000234360C0E9023301230374704700BFA1
:101A9000643C000810B53023044683F31188FFF737
:101AA00055FD02230020237480F3118810BD00002F
:101AB00038B5C36904460D461BB904210844FFF735
:101AC000A5FF294604F11400FFF7ACFE002806DA52
:101AD000201D4FF40061BDE83840FFF797BF38BDC7
:101AE00000238268037503691B6899689142FBD2E1
:101AF0005A68036042601060586070470023826833
:101B0000037503691B6899689142FBD85A680360A2
:101B1000426010605860704708B50846302383F370
:101B200011880A7D0023052A06D8DFE802F00B059C
:101B30000503120E826913604FF0FF338361FFF7D4
:101B4000CFFF002383F3118808BD826993680133B6
:101B50009360D0E9003213605A60EDE7FFF7C0BF31
:101B6000054BD96808751868026853601A6001222D
:101B7000D8600275FEF746BC902900200C4B30B5AA
:101B8000DD684B1C87B004460FD02B46094A6846D7
:101B900000F06EF92046FFF7E3FF009B13B16846A3
:101BA00000F070F9A86907B030BDFFF7D9FFF9E779
:101BB00090290020191B000838B50C4D044681619E
:101BC000EB6881689A68914203D8BDE83840FFF716
:101BD00087BF1846FFF792FF01230146EC602046BD
:101BE0002375BDE83840FEF70DBC00BF90290020EA
:101BF000044B1A68DB6890689B68984294BF002089
:101C00000120704790290020084B10B51C68D86847
:101C1000226853601A600122DC602275FFF76EFFB4
:101C200001462046BDE81040FEF7ECBB902900209D
:101C300038B50123084C00252370656000F090FD45
:101C400000F0B6FD0549064800F08AFE0223237025
:101C500085F3118838BD00BFF82B0020903C0008A8
:101C60009029002000F044B98B60022308610846E7
:101C70008B8270478368A3F1840243F8142C0269B5
:101C800043F8442C426943F8402C094A43F8242C79
:101C9000C268A3F1200043F8182C022203F80C2C90
:101CA000002203F80B2C034A43F8102C704700BFA6
:101CB0001D0400089029002008B5FFF7DBFFBDE8F0
:101CC0000840FFF74BBF0000024BDB6898610F2014
:101CD000FFF746BF90290020302383F31188FFF7D8
:101CE000F3BF000008B50146302383F311880820B4
:101CF000FFF744FF002383F3118808BD054BDB6821
:101D000021B1036098610320FFF738BF4FF0FF3027
:101D1000704700BF9029002003682BB100220260A9
:101D200018469961FFF71ABF70470000064BDB6841
:101D300039B1426818605A60136043600420FFF7AD
:101D40001DBF4FF0FF307047902900200368984274
:101D500006D01A680260506018469961FFF7FEBE0F
:101D600070470000036810B59C68A2420CD85C68FC
:101D70008A600B604C602160596099688A1A9A6089
:101D80004FF0FF33836010BD121B1B68ECE70000AF
:101D90000A2938BF0A2170B504460D460A26601983
:101DA00000F0D8FC00F0C0FC041BA54203D8751C51
:101DB00004462E46F3E70A2E04D90120BDE8704000
:101DC00000F00EBE70BD0000F8B5144B0D460A2A97
:101DD0004FF00A07D96103F11001826038BF0A226F
:101DE000416019691446016048601861A81800F044
:101DF000A1FC00F099FC431B0646A34206D37C1CC1
:101E000028192746354600F0A5FCF2E70A2F04D929
:101E10000120BDE8F84000F0E3BDF8BD90290020A6
:101E2000F8B506460D4600F07FFC0F4A134653F8FE
:101E3000107F9F4206D12A4601463046BDE8F84051
:101E4000FFF7C2BFD169BB68441A2C1928BF2C46C2
:101E5000A34202D92946FFF79BFF22463146034899
:101E6000BDE8F840FFF77EBF90290020A0290020A0
:101E7000C0E90323002310B45DF8044B4361FFF76E
:101E8000CFBF000010B5194C236998420DD081686E
:101E9000D0E9003213605A609A680A449A600023BD
:101EA00003604FF0FF33A36110BD0268234643F87F
:101EB000102F53600022026022699A4203D1BDE8CC
:101EC000104000F041BC936881680B44936000F0BF
:101ED0002BFC2269E1699268441AA242E4D91144B8
:101EE000BDE81040091AFFF753BF00BF902900203A
:101EF0002DE9F047DFF8BC8008F110072C4ED8F828
:101F0000105000F011FCD8F81C40AA68031B9A423C
:101F10003ED814444FF00009D5E90032C8F81C40FF
:101F200013605A60C5F80090D8F81030B34201D160
:101F300000F00AFC89F31188D5E903312846984757
:101F4000302383F311886B69002BD8D000F0ECFBB1
:101F50006A69A0EB040982464A450DD2022000F0CE
:101F60003FFD0022D8F81030B34208D15146284630
:101F7000BDE8F047FFF728BF121A2244F2E712EB40
:101F800009092946384638BF4A46FFF7EBFEB5E750
:101F9000D8F81030B34208D01444C8F81C00211AF5
:101FA000A960BDE8F047FFF7F3BEBDE8F08700BFCA
:101FB000A02900209029002000207047FEE70000A3
:101FC000704700004FF0FF3070470000BFF34F8FA5
:101FD000044B1A695107FCD1D3F810215207F8D1EC
:101FE000704700BF0020005208B50D4B1B78ABB9FD
:101FF000FFF7ECFF0B4BDA68D10704D50A4A5A60A9
:1020000002F188325A60D3F80C21D20706D5064A6D
:10201000C3F8042102F18832C3F8042108BD00BFCF
:10202000002C0020002000522301674508B5114B09
:102030001B78F3B9104B1A69510703D5DA6842F0DF
:102040004002DA60D3F81021520705D5D3F80C21ED
:1020500042F04002C3F80C21FFF7B8FF064BDA68E4
:1020600042F00102DA60D3F80C2142F00102C3F819
:102070000C2108BD002C0020002000520F289ABF20
:1020800000F5806040040020704700004FF40030ED
:1020900070470000102070470F2808B50BD8FFF7D5
:1020A000EDFF00F500330268013204D104308342B1
:1020B000F9D1012008BD0020FCE700000F2838B549
:1020C00005463FD8FFF782FF1F4CFFF78DFF4FF00B
:1020D000FF3307286361C4F814311DD82361FFF76B
:1020E00075FF030243F02403E360E36843F08003D9
:1020F000E36023695A07FCD42846FFF767FFFFF720
:10210000BDFF4FF4003100F0E5F92846FFF78EFFE0
:10211000BDE83840FFF7C0BFC4F81031FFF756FFE5
:10212000A0F108031B0243F02403C4F80C31D4F8D7
:102130000C3143F08003C4F80C31D4F810315B0744
:10214000FBD4D9E7002038BD002000522DE9F84F1C
:1021500004460D46104644EA0203DE0602D0002083
:10216000BDE8F88F20F01F00DFF8D4B0DFF8D4A06E
:10217000FFF73AFF05EB0008454503D10120FFF7C3
:1021800055FFEDE720222946204601F0A1FC10B9B9
:1021900020342035F0E7234604F120021F68791C23
:1021A000DDD104339342F9D104F178432048214E24
:1021B000B3F5801F204B38BF184603F1F80332BF38
:1021C000D946D1461E46FFF701FF0760A4EB050C78
:1021D000336805F11C0143F0020333602B1FD9F86B
:1021E000007017F00507FAD153F8042F8B424CF812
:1021F0000320F4D1BFF34F8FFFF7E8FE4FF0FF331A
:102200000360336823F002033360BFF34F8F0B4B3F
:10221000C3F85C42BFF34F8FBFF36F8F2022294674
:10222000204601F055FC0028B2D03846A7E700BF91
:10223000142100520C2000521420005200ED00E046
:10224000102000521021005210B5084C237828B1FC
:102250001BB9FFF7C9FE0123237010BD002BFCD072
:102260002070BDE81040FFF7E1BE00BF002C002049
:102270002DE9F04F0D4685B0814658B111F00D069D
:1022800014BF2022082211F00803019304D0431E3A
:1022900003426AD0002435E0002E37D009F11F0137
:1022A00021F01F094FF00108324F05F00403DFF859
:1022B000D0A005EA080BBBF1000F32D07869C00747
:1022C0002FD408F101080C37B8F1060FF3D19EB9ED
:1022D000294D4946A819019200F08CFA04460028BD
:1022E0003AD11836019A782EF3D1494600F082FA95
:1022F0000446002830D1019A4946204800F07AFA75
:10230000044668BB204605B0BDE8F08F0029C9D15E
:1023100001462846029200F06DFA0446E0B9029A9E
:10232000C0E713B178694107CBD5AC0702D578690E
:102330008007C6D5019911B178690107C1D5182068
:10234000494600FB08A0CDE9022300F053FA0446F9
:10235000DDE902230028B4D04A460021204601E0EE
:102360004A460021FEF75AFDCCE70246002E95D1E1
:1023700098E700BF9C3C0008342C0020042C00206F
:102380001C2C00200121FFF773BF0000F8B50023CB
:102390001A461A600433B3F5806FFAD1114D012447
:1023A0001827114E07FB046001342A6955F80C1FE9
:1023B00000F00CFA062CF5D137254FF4C054204616
:1023C000FFF7E0FF014628B122460848BDE8F84083
:1023D00000F0FCB9C4EBC404013D4FEAD404EED1D3
:1023E000F8BD00BF9C3C00081C2C0020042C0020E1
:1023F0000421FFF73DBF000008B100F06DBA70473F
:1024000070B5AAB140EA010313F01F030FD1094CC4
:102410000144A5686D0706D52568A84203D3666800
:102420003544A94204D903330C34122BF1D10022D4
:10243000104670BD9C3C00080244074BD2B210B558
:10244000904200D110BD441C00B253F8200041F866
:10245000040BE0B2F4E700BF504000580E4B30B51B
:102460001C6F240405D41C6F1C671C6F44F40044CB
:102470001C670A4C02442368D2B243F48073236081
:10248000074B904200D130BD441C51F8045B00B2B0
:1024900043F82050E0B2F4E70044025800480258E4
:1024A0005040005807B5012201A90020FFF7C4FFE2
:1024B000019803B05DF804FB13B50446FFF7F2FF83
:1024C000A04205D0012201A900200194FFF7C6FF18
:1024D00002B010BD0144BFF34F8F064B884204D3B6
:1024E000BFF34F8FBFF36F8F7047C3F85C0220308C
:1024F000F4E700BF00ED00E00144BFF34F8F064B4F
:10250000884204D3BFF34F8FBFF36F8F7047C3F878
:1025100070022030F4E700BF00ED00E0034B1A68C2
:102520001AB9034AD2F8D0241A607047AC2C0020A4
:102530000040025808B5FFF7F1FF024B1868C0F3DE
:10254000806008BDAC2C0020EFF309830549683397
:102550004A6B22F001024A6383F30988002383F364
:102560001188704700EF00E0302080F3118862B6D8
:102570000D4B0E4AD96821F4E0610904090C0A43A5
:102580000B49DA60D3F8FC2042F08072C3F8FC20DB
:10259000084AC2F8B01F116841F001011160202201
:1025A000DA7783F82200704700ED00E00003FA05B7
:1025B00055CEACC5001000E0302310B583F3118870
:1025C0000E4B5B6813F4006314D0F1EE103AEFF396
:1025D00009844FF08073683CE361094BDB6B236631
:1025E00084F30988FFF704FB10B1064BA36110BD0B
:1025F000054BFBE783F31188F9E700BF00ED00E02E
:1026000000EF00E02F0400083204000870B5BFF3AB
:102610004F8FBFF36F8F1A4A0021C2F85012BFF3D9
:102620004F8FBFF36F8F536943F400335361BFF390
:102630004F8FBFF36F8FC2F88410BFF34F8FD2F864
:10264000803043F6E074C3F3C900C3F34E335B013B
:1026500003EA0406014646EA81750139C2F8605270
:10266000F9D2203B13F1200FF2D1BFF34F8F536902
:1026700043F480335361BFF34F8FBFF36F8F70BD4F
:1026800000ED00E0FEE70000214B2248224A70B531
:10269000904237D3214BC11EDA1C121A22F00302DA
:1026A0008B4238BF00220021FEF7B8FB1C4A0023F2
:1026B000C2F88430BFF34F8FD2F8803043F6E07415
:1026C000C3F3C900C3F34E335B0103EA04060146BA
:1026D00046EA81750139C2F86C52F9D2203B13F1F8
:1026E000200FF2D1BFF34F8FBFF36F8FBFF34F8F28
:1026F000BFF36F8F0023C2F85032BFF34F8FBFF389
:102700006F8F70BD53F8041B40F8041BC0E700BF77
:10271000783E0008282F0020282F0020282F002096
:1027200000ED00E000F062BA014B586A704700BF4C
:10273000000C0040034B002258631A610222DA6049
:10274000704700BF000C0040014B0022DA60704768
:10275000000C0040014B5863704700BF000C004064
:10276000024B034A1A60034A5A607047B02C00209B
:10277000282F002000000220074B494210B55C685A
:10278000201A08401968821A8A4203D3A24201D84B
:102790005A6010BD0020FCE7B02C002008B53023A3
:1027A00083F31188FFF7E8FF002383F3118808BD46
:1027B00004480121044B03600023C0E901330C30BD
:1027C00000F016B9B82C00209D270008CB1D083A50
:1027D00023F00703591A521A012110B4D208002419
:1027E000C0E9004384600C301C605A605DF8044B03
:1027F00000F0FEB82DE9F84F364ECD1D0F460028EB
:1028000018BF0646082A4FEAD50538BF082206F148
:102810000C08341D9146404600F006F909F1070105
:10282000C9F1000E224624686CB9404600F006F952
:102830003368CBB308224946E8009847044698B36A
:1028400040E9026730E004EB010CD4F804A00CEA84
:102850000E0C0AF10100ACF1080304EBC000984231
:10286000E0D9A0EB0C0CB5EBEC0F4FEAEC0BD9D890
:102870009C421CD204F10802AB45A3EB02024FEAD2
:10288000E202626009D9691CED43206803EBC102D2
:102890005D44556043F8310022601C465F6040464D
:1028A00044F8086B00F0CAF82046BDE8F88FAA4546
:1028B000216802D111602346EFE7013504EBC5031F
:1028C00044F8351003F10801401AC0105860136035
:1028D000F1E700BFB82C0020F8B550F8043C0446DE
:1028E00050F8085CA0F1080607332F1D0C35DB08F3
:1028F00040F8043C284600F097F83B469F421A688F
:1029000001D0B34228D20AB1964225D244F8082C0D
:1029100054F8042C1E60013254F8081C06EBC20067
:10292000814206D14868024444F8042C0A6844F8FD
:10293000082C5868411C03EBC1018E4207D154F8A2
:10294000042C013202445A6054F8082C1A602846BC
:10295000BDE8F84000F072B81346CFE7FEE700008C
:1029600070B51B4B0025044686B058600E46856244
:102970000163FFF7F9FD04F11003A560E562C4E906
:1029800004334FF0FF33C4E90044C4E90635FFF7D0
:10299000CBFE2B46024604F134012046C4E908234D
:1029A00080230C4A2565FFF75FF901230A4AE0609E
:1029B00000920375684672680192B268CDE90223FD
:1029C000064BCDE90435FFF777F906B070BD00BFBF
:1029D000F82B0020E43C0008E93C00085D290008D1
:1029E000024AD36A1843D062704700BF9029002082
:1029F000C0E90000816070478368013B002B10B57F
:102A000083600CDA074BDC684368A0612060636078
:102A10001C6044600520FFF7A3F8A06910BD0020EA
:102A2000FCE700BF9029002008B5302383F311880C
:102A3000FFF7E2FF002383F3118808BD08B53023B8
:102A400083F3118883680133002B836007DC0368FC
:102A500000211A68026050601846FFF7ADF80023A5
:102A600083F3118808BD00004B6843608B68836066
:102A7000CB68C3600B6943614B6903628B69436236
:102A80000B6803607047000008B53C4B40F2FF71D3
:102A90003B48D3F888200A43C3F88820D3F888201D
:102AA00022F4FF6222F00702C3F88820D3F88820BE
:102AB000D3F8E0200A43C3F8E020D3F808210A4302
:102AC000C3F808212F4AD3F808311146FFF7CCFF8D
:102AD00000F5806002F11C01FFF7C6FF00F5806081
:102AE00002F13801FFF7C0FF00F5806002F15401E8
:102AF000FFF7BAFF00F5806002F17001FFF7B4FF45
:102B000000F5806002F18C01FFF7AEFF00F58060F8
:102B100002F1A801FFF7A8FF00F5806002F1C401EF
:102B2000FFF7A2FF00F5806002F1E001FFF79CFFD4
:102B300000F5806002F1FC01FFF796FF02F58C7151
:102B400000F58060FFF790FF00F01CF90E4BD3F802
:102B5000902242F00102C3F89022D3F8942242F06E
:102B60000102C3F894220522C3F898204FF0605266
:102B7000C3F89C20054AC3F8A02008BD00440258B1
:102B800000000258F03C000800ED00E01F000803C0
:102B900008B500F0F1F9FFF74BF80F4BD3F8DC2044
:102BA00042F04002C3F8DC20D3F8042122F04002B6
:102BB000C3F80421D3F80431084B1A6842F0080224
:102BC0001A601A6842F004021A60FFF7A7FCBDE819
:102BD0000840FFF7DBBB00BF004402580018024862
:102BE000012070470020704770470000114BD3F858
:102BF000E82042F00802C3F8E820D3F8102142F0A0
:102C00000802C3F810210C4AD3F81031D36B43F0FB
:102C10000803D363C722094B9A624FF0FF32DA628E
:102C200000229A615A63DA605A6001225A611A607E
:102C3000704700BF004402580010005C000C0040C8
:102C4000094A08B51169D3680B40D9B29B076FEAEE
:102C50000101116107D5302383F31188FFF702F8D2
:102C6000002383F3118808BD000C0040064BD3F805
:102C7000DC200243C3F8DC20D3F804211043C3F85E
:102C80000401D3F8043170470044025808B53C4BA6
:102C90004FF0FF31D3F8802062F00042C3F880206B
:102CA000D3F8802002F00042C3F88020D3F88020BF
:102CB000D3F88420C3F88410D3F884200022C3F80A
:102CC0008420D3F88400D86F40F0FF4040F4FF0028
:102CD00040F4DF4040F07F00D867D86F20F0FF401D
:102CE00020F4FF0020F4DF4020F07F00D867D86F89
:102CF000D3F888006FEA40506FEA5050C3F888005C
:102D0000D3F88800C0F30A00C3F88800D3F888001D
:102D1000D3F89000C3F89010D3F89000C3F8902037
:102D2000D3F89000D3F89400C3F89410D3F894002B
:102D3000C3F89420D3F89400D3F89800C3F89810FF
:102D4000D3F89800C3F89820D3F89800D3F88C00F3
:102D5000C3F88C10D3F88C00C3F88C20D3F88C0007
:102D6000D3F89C00C3F89C10D3F89C10C3F89C20A7
:102D7000D3F89C30FEF7D4FABDE8084000F0E8B87C
:102D80000044025808B50122534BC3F80821534BA5
:102D9000D3F8F42042F00202C3F8F420D3F81C2147
:102DA00042F00202C3F81C210222D3F81C314C4B22
:102DB000DA605A689104FCD54A4A1A6001229A6086
:102DC000494ADA6000221A614FF440429A61444B4A
:102DD0009A699204FCD51A6842F480721A603F4BDB
:102DE0001A6F12F4407F04D04FF480321A67002229
:102DF0001A671A6842F001021A60384B1A685007C5
:102E0000FCD500221A611A6912F03802FBD10121A7
:102E100019604FF0804159605A67344ADA62344A87
:102E20001A611A6842F480321A602C4B1A689103B6
:102E3000FCD51A6842F480521A601A689204FCD5D4
:102E40002C4A2D499A6200225A63196301F57C01CC
:102E5000DA6301F2E71199635A64284A1A64284A2E
:102E6000DA621A6842F0A8521A601C4B1A6802F023
:102E70002852B2F1285FF9D148229A614FF4886252
:102E8000DA6140221A621F4ADA641F4A1A651F4A31
:102E90005A651F4A9A6532231E4A1360136803F06D
:102EA0000F03022BFAD10D4A136943F00303136198
:102EB000136903F03803182BFAD14FF00050FFF7D5
:102EC000D5FE4FF08040FFF7D1FE4FF00040BDE847
:102ED0000840FFF7CBBE00BF0080005100440258FD
:102EE0000048025800C000F0020000010000FF018D
:102EF000008890082220400063020901470E05085F
:102F0000DD0BBF0120000020000001100910E000CF
:102F1000000101100020005208B5034800F0E2FC57
:102F2000BDE80840FFF748BBD02C002008B5034897
:102F3000FEF75EFBBDE80840FFF73EBB24250020FE
:102F400008B5FFF77DFEBDE80840FFF735BB000080
:102F500008B509217A20FEF7D1FB09213120FEF7BF
:102F6000CDFB07213220FEF7C9FB0C212720BDE84D
:102F70000840FEF7C3BB000008B5FFF787FE00F06E
:102F800011FAFEF779FD00F0FFF9FFF72DFEBDE81D
:102F90000840FFF7C7BB00000379052B05BF836A14
:102FA000002001204B6004BF4FF400730B6070479A
:102FB00070B55D1E866A04460D44B54205D9436B63
:102FC00043F080034363012070BD0625057100F0C6
:102FD0003BFC05232371F7E770B55D1E866A044646
:102FE0000D44B54205D9436B43F080034363012090
:102FF00070BD0725057100F04DFC05232371F7E72F
:1030000038B505790446052D05D10823037100F074
:1030100067FC257138BD0120FCE700000323F0B5F3
:10302000037185B0044600F001FA002220461146E3
:1030300000F046FA4FF4D57203AB0821204600F0A9
:1030400061FA0246B8B901232363039BC3F3032348
:10305000012B09D103AB3721204600F053FA18B9F0
:10306000A44B039A1340ABB12046012500F010FA9F
:103070000223237137E103AB00223721204600F001
:1030800041FA28B99B4A039B1A40002A00F0A78006
:1030900002232363236B03F00F03022B40F0A9806C
:1030A0006425954E42F21070FEF71CFE03AB3246CB
:1030B0000121204600F010FA0028D5D1039B002BF7
:1030C00080F293805A0003D5236B43F010032363EF
:1030D000002204F108030221204600F071FA0246A2
:1030E0000028C1D104F138030321204600F00AFA78
:1030F0000028B9D104F11805A26B092120462B46FE
:1031000000F05EFA0028AFD102ABA26B0721204687
:1031100000F0F8F906460028A6D1236B03F00F0350
:10312000022B40F08F807E227F21284600F0E8FBB2
:10313000012840F28780E76B42F21070FEF7D2FD63
:1031400008234FF4007239462046009600F054FAE6
:10315000002889D1384600F021FC236BA06203F0DF
:103160000F03022B72D103AB644A0621204600F004
:10317000C9F9002871D15F49039B1940B1FA81F167
:103180004909204600F064F902AB4FF400721021A7
:10319000204600F0B7F9054600287FF465AF554E8C
:1031A000029B33427FF460AF236B13F00E0F03F0EA
:1031B0000F0273D0022A7FF457AFE36A197801290E
:1031C00000F09480022900F09380002900F08980AB
:1031D0004B4F204600F062F903AB3A4676E01146C9
:1031E0002046226300F06CF954E7013D7FF45AAFAA
:1031F0003AE7444D6426444A3E4F012B18BF15461A
:1032000003AB00223721204600F07CF900287FF430
:103210002BAF039B3B427FF427AF03AB2A46292108
:10322000204600F059F900287FF41EAF039B002BC5
:10323000FFF648AF013E3FF417AF42F21070FEF7C1
:1032400051FDDDE7284600F07DFB86E77E227F21E9
:103250002846E66B00F054FB08B9002191E70023F3
:103260004022314620460093062300F0C5F900288D
:10327000F3D1B3895BBA9B07EFD5244B402231468B
:1032800020460093062300F0B7F90028E5D1317CF1
:1032900001F00F010F3918BF012172E7E36A1978B5
:1032A000F9B101297FF4E0AE204600F0F7F803AB56
:1032B000A26B3721204600F025F900287FF4D4AE18
:1032C000039B33427FF4D0AE03AB0222062120469B
:1032D00000F018F900287FF4C7AE039B33427FF457
:1032E000C3AE05232371284605B0F0BD084F70E733
:1032F000084F6EE708E0FFFD0080FFC00001B90342
:103300000000B7030080FF5000001080F1FFFF8035
:103310000001B7030002B70337B504460C4D01ABFB
:10332000A26B0D21204600F0EDF878B9019B2B42ED
:103330000BD1C3F34323042B08D0053B022B04D845
:103340004FF47A70FEF7CEFCE9E7012003B030BD00
:1033500008E0FFFD70B53023054683F3118803793B
:103360000024022B03D184F31188204670BD04236E
:10337000037184F311880226FFF7CEFF0446284626
:1033800000F086F82E71F0E700F036B8044B0360C9
:103390000123037100234363C0E90A33704700BF70
:1033A000243E000870470000836CC26A8B4250685C
:1033B00010B506D95A1E4C0002EB4103B3FBF4F3DF
:1033C000184410BD01F001038A0748BF43F002030F
:1033D0004A0748BF43F008030A0748BF43F0040305
:1033E000CA0648BF43F010038A06426B48BF43F049
:1033F000200313434363704710B5074C2046FFF783
:10340000C5FF064B0022C4E91023054BA364054BFE
:10341000E363054BE36410BDD02C00200070005224
:1034200000B4C404242D0020242F002010B5446CC7
:103430000649FFF7B9FF6060236842F2107043F05D
:1034400003032360BDE81040FEF74CBC801A060061
:103450000129F8B5466C0B4F09D175680A493D4002
:10346000FFF7A2FF054345F480557560F8BD746809
:1034700006493C40FFF798FF044344F480547460CD
:10348000F4E700BF00ECFFFF80F0FA0240787D0116
:10349000436C00225A601A6070470000426C012998
:1034A000536823F4404304D0022905D001B9536086
:1034B000704743F48043FAE743F40043F7E7000022
:1034C000436C41F480519A60D9605A6B1206FCD566
:1034D00080229A637047000010B541F48851446C13
:1034E000A260E160616B11F04502FBD0A26311F0B4
:1034F000040203D0FFF766FF012010BD616910468A
:103500001960FAE710B541F48851446CA260E1609B
:10351000616B11F04502FBD0A26311F0050203D0EC
:10352000FFF750FF012010BD616910461960FAE7EE
:1035300073B5134604460E46302282F31188426C5E
:10354000D26B32B14FF0FF3140300193FEF7D6FB22
:10355000019B606C00220265C263C262456B15F478
:10356000807504D185F31188012002B070BD4FF041
:10357000FF31816382F31188012E06D90C21204688
:1035800002B0BDE87040FFF7BDBF1046EDE7000098
:1035900073B5446C0E4600250192616BA1632565ED
:1035A000E562FFF70FFF012E07D9019B2A460C2188
:1035B00002B0BDE87040FFF7A5BF02B070BD0000CB
:1035C00010B541F49851446CA260E160616B11F058
:1035D0004502FBD0A26311F03F0203D0FFF7F2FED9
:1035E000012010BD216A10461960E1695960A16986
:1035F00099606169D960F4E72DE9F74304460191C8
:10360000006D01A91746984600F0D8F90646002833
:103610004AD0626C2046DDF804905568C5F3090570
:1036200001356B00A56CB5FBF3F54FF47A73B5FB70
:10363000F3F55D435562FFF76FFE50BB636C4FF0CF
:10364000FF3201254146C3F8589020461D659A6314
:103650004FF49572DA6342F207029F62DA62E36C1A
:103660000A9AFFF74FFFA0B9E26C104B11680B40AC
:103670007BB929462046FFF75BFF054648B92E4631
:103680003A460199206D00F0D1F9304603B0BDE80B
:10369000F0833A460199206D00F0C8F9E26C0121EF
:1036A0002046FFF775FFF0E70126EEE708E0FFFD93
:1036B0002DE9F7431F46436C01924FF47A725D681F
:1036C00004468846C5F3090501356E00856CB5FBD7
:1036D000F6F5B5FBF2F555435D62FFF71DFE20B12F
:1036E0000125284603B0BDE8F0837E0201A9206DC4
:1036F000324600F063F905460028F1D0636C019A68
:10370000D4F84C909A6501221A654FF0FF329A6303
:103710004FF49572DA639E62236BDB064B4658BF0B
:103720004FEA4828012F42461BD912212046FFF7B5
:10373000E9FEC0B9D9F80020104B13409BB9636C67
:1037400042F2930239462046DA62E26CFFF7F0FE5D
:10375000804640B932460199206D454600F066F931
:10376000BFE71121E2E732460199206D00F05EF9D2
:10377000E26C39462046FFF70BFFB2E708E0FFFD99
:103780002DE9F3411F46436C01924FF47A725D6854
:1037900004468846C5F3090501356E00856CB5FB06
:1037A000F6F5B5FBF2F555435D62FFF7B5FD20B1C7
:1037B0000125284602B0BDE8F0817E0201A9206DF6
:1037C000324600F041F905460028F1D0636C019AB9
:1037D0009A6501221A654FF0FF329A634FF48D7299
:1037E000DA639E62236BE66CDB06334658BF4FEA12
:1037F0004828012F424619D919212046FFF782FE99
:10380000B0B932680F4B134093B9636C42F2910226
:1038100039462046DA62E26CFFF78AFE064638B97E
:1038200001993546206D00F04BF9C2E71821E4E715
:103830000199206D00F044F9E26C39462046FFF70B
:10384000A7FEB6E708E0FFFD12F0030F2DE9F041F7
:1038500007460C4615461E4617D00E44B44202D108
:103860000020BDE8F0810123FA6B21463846FFF7BE
:103870001FFF0028F5D128464FF40072F96B05F5BB
:1038800000750134FDF7C0FAE8E7BDE8F041FFF745
:103890000FBF000012F0030F2DE9F04107460C4660
:1038A00015461E4617D00E44B44202D10020BDE892
:1038B000F08129464FF40072F86B05F50075FDF7AD
:1038C000A3FA0123FA6B21463846FFF759FF002877
:1038D000EDD10134E8E7BDE8F041FFF751BF00004A
:1038E00000207047302310B583F311880024436C07
:1038F00040302146DC63FEF70FFA84F3118810BDD7
:1039000001F01F03F0B502F01F0456095A1C0123F1
:10391000B6EB511F50F8265003FA02F34FEA511745
:1039200003F1FF333DBF50F82720C4F120001340BE
:1039300003EA05003BBF03FA00F225FA04F0E04079
:103940001043F0BD70B57E227F210546FFF7D8FFFA
:1039500018B1012819D0002070BD3E224921284607
:10396000FFF7CEFF2F22044631212846FFF7C8FF7C
:10397000064601345022023653212846B440FFF750
:10398000BFFF093804FA00F0E6E730224521284657
:10399000FFF7B6FF01308002DEE7000090F8D63076
:1039A00090F8D7201B0403EB026390F8D42090F822
:1039B000D500134403EB002070470000F8B50F4614
:1039C0001546044648B905F11F010126386821F063
:1039D0001F01FEF77FFD3046F8BD427B294638685F
:1039E000FEF70EFD06460028EDD13B686360A36834
:1039F000AB4210D213B12068FEF7FEFC637B284671
:103A00002BB1FEF7F5FC206020B9A060E3E7FEF7DC
:103A1000B9FCF8E7A560206805F11F01012621F037
:103A20001F013860FEF756FD2673D4E710B5044633
:103A300040B10068884205D1606808B1FDF7E4F93B
:103A40000023237310BD0000F8B50F461446054649
:103A500048B904F11F010126386821F01F01FEF763
:103A60004BFD3046F8BD427B21463868FEF7C8FC66
:103A700006460028EDD1AB68A34210D213B12868E6
:103A8000FEF7BAFC6B7B20462BB1FEF7B1FC286039
:103A900020B9A860E5E7FEF775FCF8E7AC60396887
:103AA00019B122462868FDF7AFF9286804F11F0113
:103AB000012621F01F013860FEF71EFD2E73D0E7AE
:103AC00020B103688B4204BF0023037370470000DA
:103AD00010B501390244904201D1002005E003787D
:103AE00011F8014FA34201D0181B10BD0130F2E7BD
:103AF000616162626535303061613462363832331B
:103B0000000000001210000012110000121300004B
:103B100053544D333248373F3F3F0053544D3332B7
:103B2000483733782F3732780053544D3332483783
:103B300034332F3735332F373530000001105A001A
:103B400003105900012058000320560010000240C5
:103B5000080002400008024000000B00280002405C
:103B6000080002400408024006010C004000024028
:103B7000080002400808024010020D0058000240F0
:103B8000080002400C08024016030E0070000240BC
:103B90000C0002401008024000040F0088000240A0
:103BA0000C0002401408024006051000A00002406C
:103BB0000C0002401808024010061100B800024034
:103BC0000C0002401C08024016072F00100402409F
:103BD000080402402008024000083800280402407F
:103BE000080402402408024006093900400402404B
:103BF0000804024028080240100A3A005804024013
:103C0000080402402C080240160B3B0070040240DE
:103C10000C04024030080240000C3C0088040240C2
:103C20000C04024034080240060D4400A004024087
:103C30000C04024038080240100E4500B80402404F
:103C40000C0402403C080240160F4600009600009B
:103C50000000000000000000000000000000000064
:103C60000000000000000000391A0008251A0008B2
:103C7000611A00084D1A0008591A0008451A000870
:103C8000311A00081D1A00086D1A00086330000080
:103C90008C3C0008E8290020F82B002000010020BF
:103CA00000FF0100020000000000003000000400DE
:103CB00008000000000000240000080004000000CC
:103CC0000004000000FC00000200000000000430BE
:103CD0000080000008000000000000380000010023
:103CE000010000006D61696E0069646C6500000090
:103CF0000000000000000000AAAAAAAA000000001C
:103D0000FFFF000000000000000000000000A00015
:103D100000000000AAAAAAAA00005000FFFF0000AD
:103D200000000000007700000000AA020000000070
:103D3000AAAAAAAA00005500FFFF00000000000088
:103D4000CCCC0C002000000000000000AAAAAAAA07
:103D500010000000FFFF0000000C00000000000049
:103D60004015000000000000AAAAAAAA0000000056
:103D700087FF0000000000000000000000000000BD
:103D800000000000AAAAAAAA00000000FFFF00008D
:103D90000000000000000000000000000000000023
:103DA000AAAAAAAA00000000FFFF0000000000006D
:103DB000000000000000000000000000AAAAAAAA5B
:103DC00000000000FFFF00000000000000000000F5
:103DD0000000000000000000AAAAAAAA000000003B
:103DE000FFFF0000000000000000000000000000D5
:103DF00000000000AAAAAAAA00000000FFFF00001D
:103E000000000000000000000000000000000000B2
:103E1000AAAAAAAA00000000FFFF000000000000FC
:103E20000000000000000000E12B0008E52B000866
:103E30001D30000855330008B12F0008D92F0008A5
:103E400001300008992F0008AD2600000000000096
:103E500000001E0000000000FF00000024250020DC
:103E600000000000103B0008830400001B3B00081A
:083E700050040000293B00088A
:00000001FF
